{
  "_format": "hh-sol-artifact-1",
  "contractName": "Campaign",
  "sourceName": "contracts/Campaign_old.sol",
  "abi": [
    {
      "inputs": [],
      "stateMutability": "nonpayable",
      "type": "constructor"
    },
    {
      "anonymous": false,
      "inputs": [
        {
          "indexed": true,
          "internalType": "address",
          "name": "account",
          "type": "address"
        },
        {
          "indexed": true,
          "internalType": "address",
          "name": "operator",
          "type": "address"
        },
        {
          "indexed": false,
          "internalType": "bool",
          "name": "approved",
          "type": "bool"
        }
      ],
      "name": "ApprovalForAll",
      "type": "event"
    },
    {
      "anonymous": false,
      "inputs": [
        {
          "indexed": true,
          "internalType": "address",
          "name": "operator",
          "type": "address"
        },
        {
          "indexed": true,
          "internalType": "address",
          "name": "from",
          "type": "address"
        },
        {
          "indexed": true,
          "internalType": "address",
          "name": "to",
          "type": "address"
        },
        {
          "indexed": false,
          "internalType": "uint256[]",
          "name": "ids",
          "type": "uint256[]"
        },
        {
          "indexed": false,
          "internalType": "uint256[]",
          "name": "values",
          "type": "uint256[]"
        }
      ],
      "name": "TransferBatch",
      "type": "event"
    },
    {
      "anonymous": false,
      "inputs": [
        {
          "indexed": true,
          "internalType": "address",
          "name": "operator",
          "type": "address"
        },
        {
          "indexed": true,
          "internalType": "address",
          "name": "from",
          "type": "address"
        },
        {
          "indexed": true,
          "internalType": "address",
          "name": "to",
          "type": "address"
        },
        {
          "indexed": false,
          "internalType": "uint256",
          "name": "id",
          "type": "uint256"
        },
        {
          "indexed": false,
          "internalType": "uint256",
          "name": "value",
          "type": "uint256"
        }
      ],
      "name": "TransferSingle",
      "type": "event"
    },
    {
      "anonymous": false,
      "inputs": [
        {
          "indexed": false,
          "internalType": "string",
          "name": "value",
          "type": "string"
        },
        {
          "indexed": true,
          "internalType": "uint256",
          "name": "id",
          "type": "uint256"
        }
      ],
      "name": "URI",
      "type": "event"
    },
    {
      "inputs": [
        {
          "internalType": "address",
          "name": "account",
          "type": "address"
        },
        {
          "internalType": "uint256",
          "name": "id",
          "type": "uint256"
        }
      ],
      "name": "balanceOf",
      "outputs": [
        {
          "internalType": "uint256",
          "name": "",
          "type": "uint256"
        }
      ],
      "stateMutability": "view",
      "type": "function"
    },
    {
      "inputs": [
        {
          "internalType": "address[]",
          "name": "accounts",
          "type": "address[]"
        },
        {
          "internalType": "uint256[]",
          "name": "ids",
          "type": "uint256[]"
        }
      ],
      "name": "balanceOfBatch",
      "outputs": [
        {
          "internalType": "uint256[]",
          "name": "",
          "type": "uint256[]"
        }
      ],
      "stateMutability": "view",
      "type": "function"
    },
    {
      "inputs": [],
      "name": "cpAdmin",
      "outputs": [
        {
          "internalType": "address",
          "name": "",
          "type": "address"
        }
      ],
      "stateMutability": "view",
      "type": "function"
    },
    {
      "inputs": [],
      "name": "cpMetadata",
      "outputs": [
        {
          "internalType": "string",
          "name": "",
          "type": "string"
        }
      ],
      "stateMutability": "view",
      "type": "function"
    },
    {
      "inputs": [
        {
          "internalType": "int96",
          "name": "flowRate",
          "type": "int96"
        }
      ],
      "name": "donateViaStream",
      "outputs": [],
      "stateMutability": "nonpayable",
      "type": "function"
    },
    {
      "inputs": [
        {
          "internalType": "contract ISuperToken",
          "name": "_usdcx",
          "type": "address"
        },
        {
          "internalType": "address",
          "name": "_cpAdmin",
          "type": "address"
        },
        {
          "internalType": "string",
          "name": "_cpMetadata",
          "type": "string"
        }
      ],
      "name": "init",
      "outputs": [],
      "stateMutability": "nonpayable",
      "type": "function"
    },
    {
      "inputs": [
        {
          "internalType": "address",
          "name": "account",
          "type": "address"
        },
        {
          "internalType": "address",
          "name": "operator",
          "type": "address"
        }
      ],
      "name": "isApprovedForAll",
      "outputs": [
        {
          "internalType": "bool",
          "name": "",
          "type": "bool"
        }
      ],
      "stateMutability": "view",
      "type": "function"
    },
    {
      "inputs": [],
      "name": "isInitialized",
      "outputs": [
        {
          "internalType": "bool",
          "name": "",
          "type": "bool"
        }
      ],
      "stateMutability": "view",
      "type": "function"
    },
    {
      "inputs": [],
      "name": "isPaused",
      "outputs": [
        {
          "internalType": "bool",
          "name": "",
          "type": "bool"
        }
      ],
      "stateMutability": "view",
      "type": "function"
    },
    {
      "inputs": [],
      "name": "pauseCampaign",
      "outputs": [],
      "stateMutability": "nonpayable",
      "type": "function"
    },
    {
      "inputs": [],
      "name": "resumeCampaign",
      "outputs": [],
      "stateMutability": "nonpayable",
      "type": "function"
    },
    {
      "inputs": [
        {
          "internalType": "address",
          "name": "from",
          "type": "address"
        },
        {
          "internalType": "address",
          "name": "to",
          "type": "address"
        },
        {
          "internalType": "uint256[]",
          "name": "ids",
          "type": "uint256[]"
        },
        {
          "internalType": "uint256[]",
          "name": "amounts",
          "type": "uint256[]"
        },
        {
          "internalType": "bytes",
          "name": "data",
          "type": "bytes"
        }
      ],
      "name": "safeBatchTransferFrom",
      "outputs": [],
      "stateMutability": "nonpayable",
      "type": "function"
    },
    {
      "inputs": [
        {
          "internalType": "address",
          "name": "from",
          "type": "address"
        },
        {
          "internalType": "address",
          "name": "to",
          "type": "address"
        },
        {
          "internalType": "uint256",
          "name": "id",
          "type": "uint256"
        },
        {
          "internalType": "uint256",
          "name": "amount",
          "type": "uint256"
        },
        {
          "internalType": "bytes",
          "name": "data",
          "type": "bytes"
        }
      ],
      "name": "safeTransferFrom",
      "outputs": [],
      "stateMutability": "nonpayable",
      "type": "function"
    },
    {
      "inputs": [
        {
          "internalType": "address",
          "name": "operator",
          "type": "address"
        },
        {
          "internalType": "bool",
          "name": "approved",
          "type": "bool"
        }
      ],
      "name": "setApprovalForAll",
      "outputs": [],
      "stateMutability": "nonpayable",
      "type": "function"
    },
    {
      "inputs": [],
      "name": "stopDonationStream",
      "outputs": [],
      "stateMutability": "nonpayable",
      "type": "function"
    },
    {
      "inputs": [
        {
          "internalType": "bytes4",
          "name": "interfaceId",
          "type": "bytes4"
        }
      ],
      "name": "supportsInterface",
      "outputs": [
        {
          "internalType": "bool",
          "name": "",
          "type": "bool"
        }
      ],
      "stateMutability": "view",
      "type": "function"
    },
    {
      "inputs": [
        {
          "internalType": "uint256",
          "name": "",
          "type": "uint256"
        }
      ],
      "name": "uri",
      "outputs": [
        {
          "internalType": "string",
          "name": "",
          "type": "string"
        }
      ],
      "stateMutability": "view",
      "type": "function"
    },
    {
      "inputs": [],
      "name": "usdcx",
      "outputs": [
        {
          "internalType": "contract ISuperToken",
          "name": "",
          "type": "address"
        }
      ],
      "stateMutability": "view",
      "type": "function"
    },
    {
      "inputs": [],
      "name": "withdrawFunds",
      "outputs": [],
      "stateMutability": "nonpayable",
      "type": "function"
    }
  ],
  "bytecode": "0x608060405234801561001057600080fd5b50604051806020016040528060008152506100308161003660201b60201c565b5061036b565b80600290816100459190610299565b5050565b600081519050919050565b7f4e487b7100000000000000000000000000000000000000000000000000000000600052604160045260246000fd5b7f4e487b7100000000000000000000000000000000000000000000000000000000600052602260045260246000fd5b600060028204905060018216806100ca57607f821691505b6020821081036100dd576100dc610083565b5b50919050565b60008190508160005260206000209050919050565b60006020601f8301049050919050565b600082821b905092915050565b6000600883026101457fffffffffffffffffffffffffffffffffffffffffffffffffffffffffffffffff82610108565b61014f8683610108565b95508019841693508086168417925050509392505050565b6000819050919050565b6000819050919050565b600061019661019161018c84610167565b610171565b610167565b9050919050565b6000819050919050565b6101b08361017b565b6101c46101bc8261019d565b848454610115565b825550505050565b600090565b6101d96101cc565b6101e48184846101a7565b505050565b5b81811015610208576101fd6000826101d1565b6001810190506101ea565b5050565b601f82111561024d5761021e816100e3565b610227846100f8565b81016020851015610236578190505b61024a610242856100f8565b8301826101e9565b50505b505050565b600082821c905092915050565b600061027060001984600802610252565b1980831691505092915050565b6000610289838361025f565b9150826002028217905092915050565b6102a282610049565b67ffffffffffffffff8111156102bb576102ba610054565b5b6102c582546100b2565b6102d082828561020c565b600060209050601f83116001811461030357600084156102f1578287015190505b6102fb858261027d565b865550610363565b601f198416610311866100e3565b60005b8281101561033957848901518255600182019150602085019450602081019050610314565b868310156103565784890151610352601f89168261025f565b8355505b6001600288020188555050505b505050505050565b6146a68061037a6000396000f3fe608060405234801561001057600080fd5b50600436106101205760003560e01c80634e1273f4116100ad578063a22cb46511610071578063a22cb465146102bb578063b187bd26146102d7578063e29b1030146102f5578063e985e9c514610313578063f242432a1461034357610120565b80634e1273f41461022b5780634e7332811461025b5780635c9a6d3714610279578063667c79fb146102955780637b463785146102b157610120565b80630d10f3b5116100f45780630d10f3b5146101ad5780630e89341c146101b757806324600fc3146101e75780632eb2c2d6146101f1578063392e53cd1461020d57610120565b8062fdd58e1461012557806301ffc9a71461015557806308a7c27d146101855780630cb345291461018f575b600080fd5b61013f600480360381019061013a919061281d565b61035f565b60405161014c919061286c565b60405180910390f35b61016f600480360381019061016a91906128df565b610427565b60405161017c9190612927565b60405180910390f35b61018d610509565b005b610197610565565b6040516101a49190612951565b60405180910390f35b6101b561058b565b005b6101d160048036038101906101cc919061296c565b610688565b6040516101de9190612a29565b60405180910390f35b6101ef61071c565b005b61020b60048036038101906102069190612c48565b6109ea565b005b610215610a8b565b6040516102229190612927565b60405180910390f35b61024560048036038101906102409190612dda565b610a9e565b6040516102529190612f10565b60405180910390f35b610263610bb1565b6040516102709190612f91565b60405180910390f35b610293600480360381019061028e919061308b565b610bd7565b005b6102af60048036038101906102aa9190613133565b610be7565b005b6102b9610ca6565b005b6102d560048036038101906102d0919061318c565b610da2565b005b6102df610db8565b6040516102ec9190612927565b60405180910390f35b6102fd610dcb565b60405161030a9190612a29565b60405180910390f35b61032d600480360381019061032891906131cc565b610e59565b60405161033a9190612927565b60405180910390f35b61035d6004803603810190610358919061320c565b610eed565b005b60008073ffffffffffffffffffffffffffffffffffffffff168373ffffffffffffffffffffffffffffffffffffffff16036103cf576040517f08c379a00000000000000000000000000000000000000000000000000000000081526004016103c690613315565b60405180910390fd5b60008083815260200190815260200160002060008473ffffffffffffffffffffffffffffffffffffffff1673ffffffffffffffffffffffffffffffffffffffff16815260200190815260200160002054905092915050565b60007fd9b67a26000000000000000000000000000000000000000000000000000000007bffffffffffffffffffffffffffffffffffffffffffffffffffffffff1916827bffffffffffffffffffffffffffffffffffffffffffffffffffffffff191614806104f257507f0e89341c000000000000000000000000000000000000000000000000000000007bffffffffffffffffffffffffffffffffffffffffffffffffffffffff1916827bffffffffffffffffffffffffffffffffffffffffffffffffffffffff1916145b80610502575061050182610f8e565b5b9050919050565b6105563330600360009054906101000a900473ffffffffffffffffffffffffffffffffffffffff1673ffffffffffffffffffffffffffffffffffffffff16610ff89092919063ffffffff16565b506105633360018061105c565b565b600460009054906101000a900473ffffffffffffffffffffffffffffffffffffffff1681565b600460009054906101000a900473ffffffffffffffffffffffffffffffffffffffff1673ffffffffffffffffffffffffffffffffffffffff163373ffffffffffffffffffffffffffffffffffffffff161461061b576040517f08c379a0000000000000000000000000000000000000000000000000000000008152600401610612906133a7565b60405180910390fd5b600360159054906101000a900460ff161561066b576040517f08c379a000000000000000000000000000000000000000000000000000000000815260040161066290613413565b60405180910390fd5b6001600360156101000a81548160ff021916908315150217905550565b60606002805461069790613462565b80601f01602080910402602001604051908101604052809291908181526020018280546106c390613462565b80156107105780601f106106e557610100808354040283529160200191610710565b820191906000526020600020905b8154815290600101906020018083116106f357829003601f168201915b50505050509050919050565b600460009054906101000a900473ffffffffffffffffffffffffffffffffffffffff1673ffffffffffffffffffffffffffffffffffffffff163373ffffffffffffffffffffffffffffffffffffffff16146107ac576040517f08c379a00000000000000000000000000000000000000000000000000000000081526004016107a3906133a7565b60405180910390fd5b6000600360009054906101000a900473ffffffffffffffffffffffffffffffffffffffff1673ffffffffffffffffffffffffffffffffffffffff166370a08231306040518263ffffffff1660e01b81526004016108099190612951565b602060405180830381865afa158015610826573d6000803e3d6000fd5b505050506040513d601f19601f8201168201806040525081019061084a91906134a8565b1161088a576040517f08c379a000000000000000000000000000000000000000000000000000000000815260040161088190613521565b60405180910390fd5b600360009054906101000a900473ffffffffffffffffffffffffffffffffffffffff1673ffffffffffffffffffffffffffffffffffffffff1663a9059cbb600460009054906101000a900473ffffffffffffffffffffffffffffffffffffffff16600360009054906101000a900473ffffffffffffffffffffffffffffffffffffffff1673ffffffffffffffffffffffffffffffffffffffff166370a08231306040518263ffffffff1660e01b81526004016109469190612951565b602060405180830381865afa158015610963573d6000803e3d6000fd5b505050506040513d601f19601f8201168201806040525081019061098791906134a8565b6040518363ffffffff1660e01b81526004016109a4929190613541565b6020604051808303816000875af11580156109c3573d6000803e3d6000fd5b505050506040513d601f19601f820116820180604052508101906109e7919061357f565b50565b6109f26112a2565b73ffffffffffffffffffffffffffffffffffffffff168573ffffffffffffffffffffffffffffffffffffffff161480610a385750610a3785610a326112a2565b610e59565b5b610a77576040517f08c379a0000000000000000000000000000000000000000000000000000000008152600401610a6e9061361e565b60405180910390fd5b610a8485858585856112aa565b5050505050565b600360149054906101000a900460ff1681565b60608151835114610ae4576040517f08c379a0000000000000000000000000000000000000000000000000000000008152600401610adb906136b0565b60405180910390fd5b6000835167ffffffffffffffff811115610b0157610b00612a50565b5b604051908082528060200260200182016040528015610b2f5781602001602082028036833780820191505090505b50905060005b8451811015610ba657610b7c858281518110610b5457610b536136d0565b5b6020026020010151858381518110610b6f57610b6e6136d0565b5b602002602001015161035f565b828281518110610b8f57610b8e6136d0565b5b602002602001018181525050806001019050610b35565b508091505092915050565b600360009054906101000a900473ffffffffffffffffffffffffffffffffffffffff1681565b610be28383836115c5565b505050565b600360159054906101000a900460ff1615610c37576040517f08c379a0000000000000000000000000000000000000000000000000000000008152600401610c2e9061374b565b60405180910390fd5b610c86333083600360009054906101000a900473ffffffffffffffffffffffffffffffffffffffff1673ffffffffffffffffffffffffffffffffffffffff166117a5909392919063ffffffff16565b50610ca3336001806040518060200160405280600081525061180b565b50565b600460009054906101000a900473ffffffffffffffffffffffffffffffffffffffff1673ffffffffffffffffffffffffffffffffffffffff163373ffffffffffffffffffffffffffffffffffffffff1614610d36576040517f08c379a0000000000000000000000000000000000000000000000000000000008152600401610d2d906133a7565b60405180910390fd5b600360159054906101000a900460ff16610d85576040517f08c379a0000000000000000000000000000000000000000000000000000000008152600401610d7c906137b7565b60405180910390fd5b6000600360156101000a81548160ff021916908315150217905550565b610db4610dad6112a2565b83836119bb565b5050565b600360159054906101000a900460ff1681565b60058054610dd890613462565b80601f0160208091040260200160405190810160405280929190818152602001828054610e0490613462565b8015610e515780601f10610e2657610100808354040283529160200191610e51565b820191906000526020600020905b815481529060010190602001808311610e3457829003601f168201915b505050505081565b6000600160008473ffffffffffffffffffffffffffffffffffffffff1673ffffffffffffffffffffffffffffffffffffffff16815260200190815260200160002060008373ffffffffffffffffffffffffffffffffffffffff1673ffffffffffffffffffffffffffffffffffffffff16815260200190815260200160002060009054906101000a900460ff16905092915050565b610ef56112a2565b73ffffffffffffffffffffffffffffffffffffffff168573ffffffffffffffffffffffffffffffffffffffff161480610f3b5750610f3a85610f356112a2565b610e59565b5b610f7a576040517f08c379a0000000000000000000000000000000000000000000000000000000008152600401610f719061361e565b60405180910390fd5b610f878585858585611b27565b5050505050565b60007f01ffc9a7000000000000000000000000000000000000000000000000000000007bffffffffffffffffffffffffffffffffffffffffffffffffffffffff1916827bffffffffffffffffffffffffffffffffffffffffffffffffffffffff1916149050919050565b6000611053848484600067ffffffffffffffff81111561101b5761101a612a50565b5b6040519080825280601f01601f19166020018201604052801561104d5781602001600182028036833780820191505090505b50611dc2565b90509392505050565b600073ffffffffffffffffffffffffffffffffffffffff168373ffffffffffffffffffffffffffffffffffffffff16036110cb576040517f08c379a00000000000000000000000000000000000000000000000000000000081526004016110c290613849565b60405180910390fd5b60006110d56112a2565b905060006110e284611f29565b905060006110ef84611f29565b905061110f83876000858560405180602001604052806000815250611fa3565b600080600087815260200190815260200160002060008873ffffffffffffffffffffffffffffffffffffffff1673ffffffffffffffffffffffffffffffffffffffff168152602001908152602001600020549050848110156111a6576040517f08c379a000000000000000000000000000000000000000000000000000000000815260040161119d906138db565b60405180910390fd5b84810360008088815260200190815260200160002060008973ffffffffffffffffffffffffffffffffffffffff1673ffffffffffffffffffffffffffffffffffffffff16815260200190815260200160002081905550600073ffffffffffffffffffffffffffffffffffffffff168773ffffffffffffffffffffffffffffffffffffffff168573ffffffffffffffffffffffffffffffffffffffff167fc3d58168c5ae7397731d063d5bbf3d657854427343f4c083240f7aacaa2d0f6289896040516112739291906138fb565b60405180910390a461129984886000868660405180602001604052806000815250611fab565b50505050505050565b600033905090565b81518351146112ee576040517f08c379a00000000000000000000000000000000000000000000000000000000081526004016112e590613996565b60405180910390fd5b600073ffffffffffffffffffffffffffffffffffffffff168473ffffffffffffffffffffffffffffffffffffffff160361135d576040517f08c379a000000000000000000000000000000000000000000000000000000000815260040161135490613a28565b60405180910390fd5b60006113676112a2565b9050611377818787878787611fa3565b60005b8451811015611522576000858281518110611398576113976136d0565b5b6020026020010151905060008583815181106113b7576113b66136d0565b5b60200260200101519050600080600084815260200190815260200160002060008b73ffffffffffffffffffffffffffffffffffffffff1673ffffffffffffffffffffffffffffffffffffffff16815260200190815260200160002054905081811015611458576040517f08c379a000000000000000000000000000000000000000000000000000000000815260040161144f90613aba565b60405180910390fd5b81810360008085815260200190815260200160002060008c73ffffffffffffffffffffffffffffffffffffffff1673ffffffffffffffffffffffffffffffffffffffff168152602001908152602001600020819055508160008085815260200190815260200160002060008b73ffffffffffffffffffffffffffffffffffffffff1673ffffffffffffffffffffffffffffffffffffffff168152602001908152602001600020600082825461150d9190613b09565b9250508190555050505080600101905061137a565b508473ffffffffffffffffffffffffffffffffffffffff168673ffffffffffffffffffffffffffffffffffffffff168273ffffffffffffffffffffffffffffffffffffffff167f4a39dc06d4c0dbc64b70af90fd698a233a518aa5d07e595d983b8c0526c8f7fb8787604051611599929190613b3d565b60405180910390a46115af818787878787611fab565b6115bd818787878787611fb3565b505050505050565b600360149054906101000a900460ff1615611615576040517f08c379a000000000000000000000000000000000000000000000000000000000815260040161160c90613bc0565b60405180910390fd5b600073ffffffffffffffffffffffffffffffffffffffff168373ffffffffffffffffffffffffffffffffffffffff1603611684576040517f08c379a000000000000000000000000000000000000000000000000000000000815260040161167b90613c2c565b60405180910390fd5b600073ffffffffffffffffffffffffffffffffffffffff168273ffffffffffffffffffffffffffffffffffffffff16036116f3576040517f08c379a00000000000000000000000000000000000000000000000000000000081526004016116ea90613c98565b60405180910390fd5b82600360006101000a81548173ffffffffffffffffffffffffffffffffffffffff021916908373ffffffffffffffffffffffffffffffffffffffff16021790555081600460006101000a81548173ffffffffffffffffffffffffffffffffffffffff021916908373ffffffffffffffffffffffffffffffffffffffff16021790555080600590816117849190613e5a565b506001600360146101000a81548160ff021916908315150217905550505050565b600061180185858585600067ffffffffffffffff8111156117c9576117c8612a50565b5b6040519080825280601f01601f1916602001820160405280156117fb5781602001600182028036833780820191505090505b5061218a565b9050949350505050565b600073ffffffffffffffffffffffffffffffffffffffff168473ffffffffffffffffffffffffffffffffffffffff160361187a576040517f08c379a000000000000000000000000000000000000000000000000000000000815260040161187190613f9e565b60405180910390fd5b60006118846112a2565b9050600061189185611f29565b9050600061189e85611f29565b90506118af83600089858589611fa3565b8460008088815260200190815260200160002060008973ffffffffffffffffffffffffffffffffffffffff1673ffffffffffffffffffffffffffffffffffffffff168152602001908152602001600020600082825461190e9190613b09565b925050819055508673ffffffffffffffffffffffffffffffffffffffff16600073ffffffffffffffffffffffffffffffffffffffff168473ffffffffffffffffffffffffffffffffffffffff167fc3d58168c5ae7397731d063d5bbf3d657854427343f4c083240f7aacaa2d0f62898960405161198c9291906138fb565b60405180910390a46119a383600089858589611fab565b6119b2836000898989896122f4565b50505050505050565b8173ffffffffffffffffffffffffffffffffffffffff168373ffffffffffffffffffffffffffffffffffffffff1603611a29576040517f08c379a0000000000000000000000000000000000000000000000000000000008152600401611a2090614030565b60405180910390fd5b80600160008573ffffffffffffffffffffffffffffffffffffffff1673ffffffffffffffffffffffffffffffffffffffff16815260200190815260200160002060008473ffffffffffffffffffffffffffffffffffffffff1673ffffffffffffffffffffffffffffffffffffffff16815260200190815260200160002060006101000a81548160ff0219169083151502179055508173ffffffffffffffffffffffffffffffffffffffff168373ffffffffffffffffffffffffffffffffffffffff167f17307eab39ab6107e8899845ad3d59bd9653f200f220920489ca2b5937696c3183604051611b1a9190612927565b60405180910390a3505050565b600073ffffffffffffffffffffffffffffffffffffffff168473ffffffffffffffffffffffffffffffffffffffff1603611b96576040517f08c379a0000000000000000000000000000000000000000000000000000000008152600401611b8d90613a28565b60405180910390fd5b6000611ba06112a2565b90506000611bad85611f29565b90506000611bba85611f29565b9050611bca838989858589611fa3565b600080600088815260200190815260200160002060008a73ffffffffffffffffffffffffffffffffffffffff1673ffffffffffffffffffffffffffffffffffffffff16815260200190815260200160002054905085811015611c61576040517f08c379a0000000000000000000000000000000000000000000000000000000008152600401611c5890613aba565b60405180910390fd5b85810360008089815260200190815260200160002060008b73ffffffffffffffffffffffffffffffffffffffff1673ffffffffffffffffffffffffffffffffffffffff168152602001908152602001600020819055508560008089815260200190815260200160002060008a73ffffffffffffffffffffffffffffffffffffffff1673ffffffffffffffffffffffffffffffffffffffff1681526020019081526020016000206000828254611d169190613b09565b925050819055508773ffffffffffffffffffffffffffffffffffffffff168973ffffffffffffffffffffffffffffffffffffffff168573ffffffffffffffffffffffffffffffffffffffff167fc3d58168c5ae7397731d063d5bbf3d657854427343f4c083240f7aacaa2d0f628a8a604051611d939291906138fb565b60405180910390a4611da9848a8a86868a611fab565b611db7848a8a8a8a8a6122f4565b505050505050505050565b6000806000611dd0876124cb565b915091508173ffffffffffffffffffffffffffffffffffffffff166339255d5b828373ffffffffffffffffffffffffffffffffffffffff1663b4b333c68b8b8b600067ffffffffffffffff811115611e2b57611e2a612a50565b5b6040519080825280601f01601f191660200182016040528015611e5d5781602001600182028036833780820191505090505b50604051602401611e7194939291906140a5565b604051602081830303815290604052915060e01b6020820180517bffffffffffffffffffffffffffffffffffffffffffffffffffffffff8381831617835250505050876040518463ffffffff1660e01b8152600401611ed293929190614112565b6000604051808303816000875af1158015611ef1573d6000803e3d6000fd5b505050506040513d6000823e3d601f19601f82011682018060405250810190611f1a91906141c7565b50600192505050949350505050565b60606000600167ffffffffffffffff811115611f4857611f47612a50565b5b604051908082528060200260200182016040528015611f765781602001602082028036833780820191505090505b5090508281600081518110611f8e57611f8d6136d0565b5b60200260200101818152505080915050919050565b505050505050565b505050505050565b611fd28473ffffffffffffffffffffffffffffffffffffffff16612752565b15612182578373ffffffffffffffffffffffffffffffffffffffff1663bc197c8187878686866040518663ffffffff1660e01b8152600401612018959493929190614210565b6020604051808303816000875af192505050801561205457506040513d601f19601f82011682018060405250810190612051919061428d565b60015b6120f9576120606142c7565b806308c379a0036120bc57506120746142e9565b8061207f57506120be565b806040517f08c379a00000000000000000000000000000000000000000000000000000000081526004016120b39190612a29565b60405180910390fd5b505b6040517f08c379a00000000000000000000000000000000000000000000000000000000081526004016120f0906143eb565b60405180910390fd5b63bc197c8160e01b7bffffffffffffffffffffffffffffffffffffffffffffffffffffffff1916817bffffffffffffffffffffffffffffffffffffffffffffffffffffffff191614612180576040517f08c379a00000000000000000000000000000000000000000000000000000000081526004016121779061447d565b60405180910390fd5b505b505050505050565b6000806000612198886124cb565b915091508173ffffffffffffffffffffffffffffffffffffffff166339255d5b828373ffffffffffffffffffffffffffffffffffffffff166394229ecb8c8c8c8c600067ffffffffffffffff8111156121f4576121f3612a50565b5b6040519080825280601f01601f1916602001820160405280156122265781602001600182028036833780820191505090505b5060405160240161223b9594939291906144ac565b604051602081830303815290604052915060e01b6020820180517bffffffffffffffffffffffffffffffffffffffffffffffffffffffff8381831617835250505050876040518463ffffffff1660e01b815260040161229c93929190614112565b6000604051808303816000875af11580156122bb573d6000803e3d6000fd5b505050506040513d6000823e3d601f19601f820116820180604052508101906122e491906141c7565b5060019250505095945050505050565b6123138473ffffffffffffffffffffffffffffffffffffffff16612752565b156124c3578373ffffffffffffffffffffffffffffffffffffffff1663f23a6e6187878686866040518663ffffffff1660e01b8152600401612359959493929190614506565b6020604051808303816000875af192505050801561239557506040513d601f19601f82011682018060405250810190612392919061428d565b60015b61243a576123a16142c7565b806308c379a0036123fd57506123b56142e9565b806123c057506123ff565b806040517f08c379a00000000000000000000000000000000000000000000000000000000081526004016123f49190612a29565b60405180910390fd5b505b6040517f08c379a0000000000000000000000000000000000000000000000000000000008152600401612431906143eb565b60405180910390fd5b63f23a6e6160e01b7bffffffffffffffffffffffffffffffffffffffffffffffffffffffff1916817bffffffffffffffffffffffffffffffffffffffffffffffffffffffff1916146124c1576040517f08c379a00000000000000000000000000000000000000000000000000000000081526004016124b89061447d565b60405180910390fd5b505b505050505050565b6000807f65599bf746e17a00ea62e3610586992d88101b78eec3cf380706621fb97ea8375491507fb969d79d88acd02d04ed7ee7d43b949e7daf093d363abcfbbc43dfdfd1ce969a549050600073ffffffffffffffffffffffffffffffffffffffff168173ffffffffffffffffffffffffffffffffffffffff16036126d357600073ffffffffffffffffffffffffffffffffffffffff168273ffffffffffffffffffffffffffffffffffffffff16036125f0578273ffffffffffffffffffffffffffffffffffffffff166320bc44256040518163ffffffff1660e01b8152600401602060405180830381865afa1580156125c9573d6000803e3d6000fd5b505050506040513d601f19601f820116820180604052508101906125ed9190614575565b91505b8173ffffffffffffffffffffffffffffffffffffffff1663b6d200de7fa9214cc96615e0085d3bb077758db69497dc2dce3b2b1e97bc93c3d18d83efd36040518263ffffffff1660e01b815260040161264991906145bb565b602060405180830381865afa158015612666573d6000803e3d6000fd5b505050506040513d601f19601f8201168201806040525081019061268a9190614614565b9050817f65599bf746e17a00ea62e3610586992d88101b78eec3cf380706621fb97ea83755807fb969d79d88acd02d04ed7ee7d43b949e7daf093d363abcfbbc43dfdfd1ce969a555b600073ffffffffffffffffffffffffffffffffffffffff168273ffffffffffffffffffffffffffffffffffffffff16036127105761270f614641565b5b600073ffffffffffffffffffffffffffffffffffffffff168173ffffffffffffffffffffffffffffffffffffffff160361274d5761274c614641565b5b915091565b6000808273ffffffffffffffffffffffffffffffffffffffff163b119050919050565b6000604051905090565b600080fd5b600080fd5b600073ffffffffffffffffffffffffffffffffffffffff82169050919050565b60006127b482612789565b9050919050565b6127c4816127a9565b81146127cf57600080fd5b50565b6000813590506127e1816127bb565b92915050565b6000819050919050565b6127fa816127e7565b811461280557600080fd5b50565b600081359050612817816127f1565b92915050565b600080604083850312156128345761283361277f565b5b6000612842858286016127d2565b925050602061285385828601612808565b9150509250929050565b612866816127e7565b82525050565b6000602082019050612881600083018461285d565b92915050565b60007fffffffff0000000000000000000000000000000000000000000000000000000082169050919050565b6128bc81612887565b81146128c757600080fd5b50565b6000813590506128d9816128b3565b92915050565b6000602082840312156128f5576128f461277f565b5b6000612903848285016128ca565b91505092915050565b60008115159050919050565b6129218161290c565b82525050565b600060208201905061293c6000830184612918565b92915050565b61294b816127a9565b82525050565b60006020820190506129666000830184612942565b92915050565b6000602082840312156129825761298161277f565b5b600061299084828501612808565b91505092915050565b600081519050919050565b600082825260208201905092915050565b60005b838110156129d35780820151818401526020810190506129b8565b60008484015250505050565b6000601f19601f8301169050919050565b60006129fb82612999565b612a0581856129a4565b9350612a158185602086016129b5565b612a1e816129df565b840191505092915050565b60006020820190508181036000830152612a4381846129f0565b905092915050565b600080fd5b7f4e487b7100000000000000000000000000000000000000000000000000000000600052604160045260246000fd5b612a88826129df565b810181811067ffffffffffffffff82111715612aa757612aa6612a50565b5b80604052505050565b6000612aba612775565b9050612ac68282612a7f565b919050565b600067ffffffffffffffff821115612ae657612ae5612a50565b5b602082029050602081019050919050565b600080fd5b6000612b0f612b0a84612acb565b612ab0565b90508083825260208201905060208402830185811115612b3257612b31612af7565b5b835b81811015612b5b5780612b478882612808565b845260208401935050602081019050612b34565b5050509392505050565b600082601f830112612b7a57612b79612a4b565b5b8135612b8a848260208601612afc565b91505092915050565b600080fd5b600067ffffffffffffffff821115612bb357612bb2612a50565b5b612bbc826129df565b9050602081019050919050565b82818337600083830152505050565b6000612beb612be684612b98565b612ab0565b905082815260208101848484011115612c0757612c06612b93565b5b612c12848285612bc9565b509392505050565b600082601f830112612c2f57612c2e612a4b565b5b8135612c3f848260208601612bd8565b91505092915050565b600080600080600060a08688031215612c6457612c6361277f565b5b6000612c72888289016127d2565b9550506020612c83888289016127d2565b945050604086013567ffffffffffffffff811115612ca457612ca3612784565b5b612cb088828901612b65565b935050606086013567ffffffffffffffff811115612cd157612cd0612784565b5b612cdd88828901612b65565b925050608086013567ffffffffffffffff811115612cfe57612cfd612784565b5b612d0a88828901612c1a565b9150509295509295909350565b600067ffffffffffffffff821115612d3257612d31612a50565b5b602082029050602081019050919050565b6000612d56612d5184612d17565b612ab0565b90508083825260208201905060208402830185811115612d7957612d78612af7565b5b835b81811015612da25780612d8e88826127d2565b845260208401935050602081019050612d7b565b5050509392505050565b600082601f830112612dc157612dc0612a4b565b5b8135612dd1848260208601612d43565b91505092915050565b60008060408385031215612df157612df061277f565b5b600083013567ffffffffffffffff811115612e0f57612e0e612784565b5b612e1b85828601612dac565b925050602083013567ffffffffffffffff811115612e3c57612e3b612784565b5b612e4885828601612b65565b9150509250929050565b600081519050919050565b600082825260208201905092915050565b6000819050602082019050919050565b612e87816127e7565b82525050565b6000612e998383612e7e565b60208301905092915050565b6000602082019050919050565b6000612ebd82612e52565b612ec78185612e5d565b9350612ed283612e6e565b8060005b83811015612f03578151612eea8882612e8d565b9750612ef583612ea5565b925050600181019050612ed6565b5085935050505092915050565b60006020820190508181036000830152612f2a8184612eb2565b905092915050565b6000819050919050565b6000612f57612f52612f4d84612789565b612f32565b612789565b9050919050565b6000612f6982612f3c565b9050919050565b6000612f7b82612f5e565b9050919050565b612f8b81612f70565b82525050565b6000602082019050612fa66000830184612f82565b92915050565b6000612fb7826127a9565b9050919050565b612fc781612fac565b8114612fd257600080fd5b50565b600081359050612fe481612fbe565b92915050565b600067ffffffffffffffff82111561300557613004612a50565b5b61300e826129df565b9050602081019050919050565b600061302e61302984612fea565b612ab0565b90508281526020810184848401111561304a57613049612b93565b5b613055848285612bc9565b509392505050565b600082601f83011261307257613071612a4b565b5b813561308284826020860161301b565b91505092915050565b6000806000606084860312156130a4576130a361277f565b5b60006130b286828701612fd5565b93505060206130c3868287016127d2565b925050604084013567ffffffffffffffff8111156130e4576130e3612784565b5b6130f08682870161305d565b9150509250925092565b600081600b0b9050919050565b613110816130fa565b811461311b57600080fd5b50565b60008135905061312d81613107565b92915050565b6000602082840312156131495761314861277f565b5b60006131578482850161311e565b91505092915050565b6131698161290c565b811461317457600080fd5b50565b60008135905061318681613160565b92915050565b600080604083850312156131a3576131a261277f565b5b60006131b1858286016127d2565b92505060206131c285828601613177565b9150509250929050565b600080604083850312156131e3576131e261277f565b5b60006131f1858286016127d2565b9250506020613202858286016127d2565b9150509250929050565b600080600080600060a086880312156132285761322761277f565b5b6000613236888289016127d2565b9550506020613247888289016127d2565b945050604061325888828901612808565b935050606061326988828901612808565b925050608086013567ffffffffffffffff81111561328a57613289612784565b5b61329688828901612c1a565b9150509295509295909350565b7f455243313135353a2061646472657373207a65726f206973206e6f742061207660008201527f616c6964206f776e657200000000000000000000000000000000000000000000602082015250565b60006132ff602a836129a4565b915061330a826132a3565b604082019050919050565b6000602082019050818103600083015261332e816132f2565b9050919050565b7f4f6e6c792063616d706169676e2061646d696e2063616e2063616c6c2074686960008201527f732066756e6374696f6e00000000000000000000000000000000000000000000602082015250565b6000613391602a836129a4565b915061339c82613335565b604082019050919050565b600060208201905081810360008301526133c081613384565b9050919050565b7f43616d706169676e20697320616c726561647920706175736564000000000000600082015250565b60006133fd601a836129a4565b9150613408826133c7565b602082019050919050565b6000602082019050818103600083015261342c816133f0565b9050919050565b7f4e487b7100000000000000000000000000000000000000000000000000000000600052602260045260246000fd5b6000600282049050600182168061347a57607f821691505b60208210810361348d5761348c613433565b5b50919050565b6000815190506134a2816127f1565b92915050565b6000602082840312156134be576134bd61277f565b5b60006134cc84828501613493565b91505092915050565b7f4e6f2066756e647320746f207769746864726177000000000000000000000000600082015250565b600061350b6014836129a4565b9150613516826134d5565b602082019050919050565b6000602082019050818103600083015261353a816134fe565b9050919050565b60006040820190506135566000830185612942565b613563602083018461285d565b9392505050565b60008151905061357981613160565b92915050565b6000602082840312156135955761359461277f565b5b60006135a38482850161356a565b91505092915050565b7f455243313135353a2063616c6c6572206973206e6f7420746f6b656e206f776e60008201527f6572206f7220617070726f766564000000000000000000000000000000000000602082015250565b6000613608602e836129a4565b9150613613826135ac565b604082019050919050565b60006020820190508181036000830152613637816135fb565b9050919050565b7f455243313135353a206163636f756e747320616e6420696473206c656e67746860008201527f206d69736d617463680000000000000000000000000000000000000000000000602082015250565b600061369a6029836129a4565b91506136a58261363e565b604082019050919050565b600060208201905081810360008301526136c98161368d565b9050919050565b7f4e487b7100000000000000000000000000000000000000000000000000000000600052603260045260246000fd5b7f43616d706169676e206973207061757365640000000000000000000000000000600082015250565b60006137356012836129a4565b9150613740826136ff565b602082019050919050565b6000602082019050818103600083015261376481613728565b9050919050565b7f43616d706169676e20697320616c72656164792072756e6e696e670000000000600082015250565b60006137a1601b836129a4565b91506137ac8261376b565b602082019050919050565b600060208201905081810360008301526137d081613794565b9050919050565b7f455243313135353a206275726e2066726f6d20746865207a65726f206164647260008201527f6573730000000000000000000000000000000000000000000000000000000000602082015250565b60006138336023836129a4565b915061383e826137d7565b604082019050919050565b6000602082019050818103600083015261386281613826565b9050919050565b7f455243313135353a206275726e20616d6f756e7420657863656564732062616c60008201527f616e636500000000000000000000000000000000000000000000000000000000602082015250565b60006138c56024836129a4565b91506138d082613869565b604082019050919050565b600060208201905081810360008301526138f4816138b8565b9050919050565b6000604082019050613910600083018561285d565b61391d602083018461285d565b9392505050565b7f455243313135353a2069647320616e6420616d6f756e7473206c656e6774682060008201527f6d69736d61746368000000000000000000000000000000000000000000000000602082015250565b60006139806028836129a4565b915061398b82613924565b604082019050919050565b600060208201905081810360008301526139af81613973565b9050919050565b7f455243313135353a207472616e7366657220746f20746865207a65726f20616460008201527f6472657373000000000000000000000000000000000000000000000000000000602082015250565b6000613a126025836129a4565b9150613a1d826139b6565b604082019050919050565b60006020820190508181036000830152613a4181613a05565b9050919050565b7f455243313135353a20696e73756666696369656e742062616c616e636520666f60008201527f72207472616e7366657200000000000000000000000000000000000000000000602082015250565b6000613aa4602a836129a4565b9150613aaf82613a48565b604082019050919050565b60006020820190508181036000830152613ad381613a97565b9050919050565b7f4e487b7100000000000000000000000000000000000000000000000000000000600052601160045260246000fd5b6000613b14826127e7565b9150613b1f836127e7565b9250828201905080821115613b3757613b36613ada565b5b92915050565b60006040820190508181036000830152613b578185612eb2565b90508181036020830152613b6b8184612eb2565b90509392505050565b7f43616d706169676e20616c726561647920696e697469616c697a656400000000600082015250565b6000613baa601c836129a4565b9150613bb582613b74565b602082019050919050565b60006020820190508181036000830152613bd981613b9d565b9050919050565b7f496e76616c696420555344437820616464726573730000000000000000000000600082015250565b6000613c166015836129a4565b9150613c2182613be0565b602082019050919050565b60006020820190508181036000830152613c4581613c09565b9050919050565b7f496e76616c69642063616d706169676e2061646d696e20616464726573730000600082015250565b6000613c82601e836129a4565b9150613c8d82613c4c565b602082019050919050565b60006020820190508181036000830152613cb181613c75565b9050919050565b60008190508160005260206000209050919050565b60006020601f8301049050919050565b600082821b905092915050565b600060088302613d1a7fffffffffffffffffffffffffffffffffffffffffffffffffffffffffffffffff82613cdd565b613d248683613cdd565b95508019841693508086168417925050509392505050565b6000613d57613d52613d4d846127e7565b612f32565b6127e7565b9050919050565b6000819050919050565b613d7183613d3c565b613d85613d7d82613d5e565b848454613cea565b825550505050565b600090565b613d9a613d8d565b613da5818484613d68565b505050565b5b81811015613dc957613dbe600082613d92565b600181019050613dab565b5050565b601f821115613e0e57613ddf81613cb8565b613de884613ccd565b81016020851015613df7578190505b613e0b613e0385613ccd565b830182613daa565b50505b505050565b600082821c905092915050565b6000613e3160001984600802613e13565b1980831691505092915050565b6000613e4a8383613e20565b9150826002028217905092915050565b613e6382612999565b67ffffffffffffffff811115613e7c57613e7b612a50565b5b613e868254613462565b613e91828285613dcd565b600060209050601f831160018114613ec45760008415613eb2578287015190505b613ebc8582613e3e565b865550613f24565b601f198416613ed286613cb8565b60005b82811015613efa57848901518255600182019150602085019450602081019050613ed5565b86831015613f175784890151613f13601f891682613e20565b8355505b6001600288020188555050505b505050505050565b7f455243313135353a206d696e7420746f20746865207a65726f2061646472657360008201527f7300000000000000000000000000000000000000000000000000000000000000602082015250565b6000613f886021836129a4565b9150613f9382613f2c565b604082019050919050565b60006020820190508181036000830152613fb781613f7b565b9050919050565b7f455243313135353a2073657474696e6720617070726f76616c2073746174757360008201527f20666f722073656c660000000000000000000000000000000000000000000000602082015250565b600061401a6029836129a4565b915061402582613fbe565b604082019050919050565b600060208201905081810360008301526140498161400d565b9050919050565b600081519050919050565b600082825260208201905092915050565b600061407782614050565b614081818561405b565b93506140918185602086016129b5565b61409a816129df565b840191505092915050565b60006080820190506140ba6000830187612f82565b6140c76020830186612942565b6140d46040830185612942565b81810360608301526140e6818461406c565b905095945050505050565b60006140fc82612f5e565b9050919050565b61410c816140f1565b82525050565b60006060820190506141276000830186614103565b8181036020830152614139818561406c565b9050818103604083015261414d818461406c565b9050949350505050565b600061416a61416584612b98565b612ab0565b90508281526020810184848401111561418657614185612b93565b5b6141918482856129b5565b509392505050565b600082601f8301126141ae576141ad612a4b565b5b81516141be848260208601614157565b91505092915050565b6000602082840312156141dd576141dc61277f565b5b600082015167ffffffffffffffff8111156141fb576141fa612784565b5b61420784828501614199565b91505092915050565b600060a0820190506142256000830188612942565b6142326020830187612942565b81810360408301526142448186612eb2565b905081810360608301526142588185612eb2565b9050818103608083015261426c818461406c565b90509695505050505050565b600081519050614287816128b3565b92915050565b6000602082840312156142a3576142a261277f565b5b60006142b184828501614278565b91505092915050565b60008160e01c9050919050565b600060033d11156142e65760046000803e6142e36000516142ba565b90505b90565b600060443d10614376576142fb612775565b60043d036004823e80513d602482011167ffffffffffffffff82111715614323575050614376565b808201805167ffffffffffffffff8111156143415750505050614376565b80602083010160043d03850181111561435e575050505050614376565b61436d82602001850186612a7f565b82955050505050505b90565b7f455243313135353a207472616e7366657220746f206e6f6e2d4552433131353560008201527f526563656976657220696d706c656d656e746572000000000000000000000000602082015250565b60006143d56034836129a4565b91506143e082614379565b604082019050919050565b60006020820190508181036000830152614404816143c8565b9050919050565b7f455243313135353a204552433131353552656365697665722072656a6563746560008201527f6420746f6b656e73000000000000000000000000000000000000000000000000602082015250565b60006144676028836129a4565b91506144728261440b565b604082019050919050565b600060208201905081810360008301526144968161445a565b9050919050565b6144a6816130fa565b82525050565b600060a0820190506144c16000830188612f82565b6144ce6020830187612942565b6144db6040830186612942565b6144e8606083018561449d565b81810360808301526144fa818461406c565b90509695505050505050565b600060a08201905061451b6000830188612942565b6145286020830187612942565b614535604083018661285d565b614542606083018561285d565b8181036080830152614554818461406c565b90509695505050505050565b60008151905061456f816127bb565b92915050565b60006020828403121561458b5761458a61277f565b5b600061459984828501614560565b91505092915050565b6000819050919050565b6145b5816145a2565b82525050565b60006020820190506145d060008301846145ac565b92915050565b60006145e1826127a9565b9050919050565b6145f1816145d6565b81146145fc57600080fd5b50565b60008151905061460e816145e8565b92915050565b60006020828403121561462a5761462961277f565b5b6000614638848285016145ff565b91505092915050565b7f4e487b7100000000000000000000000000000000000000000000000000000000600052600160045260246000fdfea264697066735822122049ffd52a92d2201e868601159f13adf7332b87fa074f6c40b0fdb3e6e9d3921664736f6c634300081b0033",
  "linkReferences": {},
  "deployedLinkReferences": {}
}